{
  "_format": "hh-sol-artifact-1",
  "contractName": "Marketplace",
  "sourceName": "contracts/Marketplace.sol",
  "abi": [
    {
      "anonymous": false,
      "inputs": [
        {
          "indexed": false,
          "internalType": "uint256",
          "name": "id",
          "type": "uint256"
        },
        {
          "indexed": false,
          "internalType": "address",
          "name": "buyer",
          "type": "address"
        },
        {
          "indexed": false,
          "internalType": "uint256",
          "name": "price",
          "type": "uint256"
        }
      ],
      "name": "ItemBought",
      "type": "event"
    },
    {
      "anonymous": false,
      "inputs": [
        {
          "indexed": false,
          "internalType": "uint256",
          "name": "id",
          "type": "uint256"
        },
        {
          "indexed": false,
          "internalType": "address",
          "name": "seller",
          "type": "address"
        },
        {
          "indexed": false,
          "internalType": "string",
          "name": "name",
          "type": "string"
        },
        {
          "indexed": false,
          "internalType": "uint256",
          "name": "price",
          "type": "uint256"
        }
      ],
      "name": "ItemListed",
      "type": "event"
    },
    {
      "anonymous": false,
      "inputs": [
        {
          "indexed": false,
          "internalType": "uint256",
          "name": "id",
          "type": "uint256"
        },
        {
          "indexed": false,
          "internalType": "address",
          "name": "from",
          "type": "address"
        },
        {
          "indexed": false,
          "internalType": "address",
          "name": "to",
          "type": "address"
        }
      ],
      "name": "ItemTransferred",
      "type": "event"
    },
    {
      "inputs": [
        {
          "internalType": "uint256",
          "name": "id",
          "type": "uint256"
        }
      ],
      "name": "buyItem",
      "outputs": [],
      "stateMutability": "payable",
      "type": "function"
    },
    {
      "inputs": [],
      "name": "itemCount",
      "outputs": [
        {
          "internalType": "uint256",
          "name": "",
          "type": "uint256"
        }
      ],
      "stateMutability": "view",
      "type": "function"
    },
    {
      "inputs": [
        {
          "internalType": "uint256",
          "name": "",
          "type": "uint256"
        }
      ],
      "name": "items",
      "outputs": [
        {
          "internalType": "uint256",
          "name": "id",
          "type": "uint256"
        },
        {
          "internalType": "address",
          "name": "seller",
          "type": "address"
        },
        {
          "internalType": "address",
          "name": "owner",
          "type": "address"
        },
        {
          "internalType": "string",
          "name": "name",
          "type": "string"
        },
        {
          "internalType": "uint256",
          "name": "price",
          "type": "uint256"
        },
        {
          "internalType": "bool",
          "name": "forSale",
          "type": "bool"
        }
      ],
      "stateMutability": "view",
      "type": "function"
    },
    {
      "inputs": [
        {
          "internalType": "string",
          "name": "name",
          "type": "string"
        },
        {
          "internalType": "uint256",
          "name": "price",
          "type": "uint256"
        }
      ],
      "name": "listItem",
      "outputs": [],
      "stateMutability": "nonpayable",
      "type": "function"
    },
    {
      "inputs": [
        {
          "internalType": "uint256",
          "name": "id",
          "type": "uint256"
        },
        {
          "internalType": "bool",
          "name": "forSale",
          "type": "bool"
        },
        {
          "internalType": "uint256",
          "name": "price",
          "type": "uint256"
        }
      ],
      "name": "setForSale",
      "outputs": [],
      "stateMutability": "nonpayable",
      "type": "function"
    },
    {
      "inputs": [
        {
          "internalType": "uint256",
          "name": "id",
          "type": "uint256"
        },
        {
          "internalType": "address",
          "name": "to",
          "type": "address"
        }
      ],
      "name": "transferItem",
      "outputs": [],
      "stateMutability": "nonpayable",
      "type": "function"
    }
  ],
  "bytecode": "0x608060405234801561001057600080fd5b506112db806100206000396000f3fe6080604052600436106100555760003560e01c80636bfb0d011461005a5780638511c93714610085578063a4229101146100ae578063bfb231d2146100d7578063cf5c1b5214610119578063e7fb74c714610142575b600080fd5b34801561006657600080fd5b5061006f61015e565b60405161007c919061088e565b60405180910390f35b34801561009157600080fd5b506100ac60048036038101906100a79190610a2f565b610164565b005b3480156100ba57600080fd5b506100d560048036038101906100d09190610ae9565b61030b565b005b3480156100e357600080fd5b506100fe60048036038101906100f99190610b29565b610437565b60405161011096959493929190610bff565b60405180910390f35b34801561012557600080fd5b50610140600480360381019061013b9190610c93565b610548565b005b61015c60048036038101906101579190610b29565b61061c565b005b60005481565b60008081548092919061017690610d15565b91905055506040518060c0016040528060005481526020013373ffffffffffffffffffffffffffffffffffffffff1681526020013373ffffffffffffffffffffffffffffffffffffffff1681526020018381526020018281526020016001151581525060016000805481526020019081526020016000206000820151816000015560208201518160010160006101000a81548173ffffffffffffffffffffffffffffffffffffffff021916908373ffffffffffffffffffffffffffffffffffffffff16021790555060408201518160020160006101000a81548173ffffffffffffffffffffffffffffffffffffffff021916908373ffffffffffffffffffffffffffffffffffffffff160217905550606082015181600301908161029a9190610f69565b506080820151816004015560a08201518160050160006101000a81548160ff0219169083151502179055509050507f4e3807e76e8c2a7b6547b6189eba5d3dc4fe2bc48c057e8ec545ec13be8063c56000543384846040516102ff949392919061103b565b60405180910390a15050565b60006001600084815260200190815260200160002090503373ffffffffffffffffffffffffffffffffffffffff168160020160009054906101000a900473ffffffffffffffffffffffffffffffffffffffff1673ffffffffffffffffffffffffffffffffffffffff16146103b4576040517f08c379a00000000000000000000000000000000000000000000000000000000081526004016103ab906110d3565b60405180910390fd5b818160020160006101000a81548173ffffffffffffffffffffffffffffffffffffffff021916908373ffffffffffffffffffffffffffffffffffffffff1602179055507f9d0353aeb19b9952d7b54a1f8427105b8885d62f9c4e04d82cca517abe142f5183338460405161042a939291906110f3565b60405180910390a1505050565b60016020528060005260406000206000915090508060000154908060010160009054906101000a900473ffffffffffffffffffffffffffffffffffffffff16908060020160009054906101000a900473ffffffffffffffffffffffffffffffffffffffff16908060030180546104ac90610d8c565b80601f01602080910402602001604051908101604052809291908181526020018280546104d890610d8c565b80156105255780601f106104fa57610100808354040283529160200191610525565b820191906000526020600020905b81548152906001019060200180831161050857829003601f168201915b5050505050908060040154908060050160009054906101000a900460ff16905086565b60006001600085815260200190815260200160002090503373ffffffffffffffffffffffffffffffffffffffff168160020160009054906101000a900473ffffffffffffffffffffffffffffffffffffffff1673ffffffffffffffffffffffffffffffffffffffff16146105f1576040517f08c379a00000000000000000000000000000000000000000000000000000000081526004016105e8906110d3565b60405180910390fd5b828160050160006101000a81548160ff02191690831515021790555081816004018190555050505050565b60006001600083815260200190815260200160002090508060050160009054906101000a900460ff16610684576040517f08c379a000000000000000000000000000000000000000000000000000000000815260040161067b90611176565b60405180910390fd5b80600401543410156106cb576040517f08c379a00000000000000000000000000000000000000000000000000000000081526004016106c2906111e2565b60405180910390fd5b3373ffffffffffffffffffffffffffffffffffffffff168160020160009054906101000a900473ffffffffffffffffffffffffffffffffffffffff1673ffffffffffffffffffffffffffffffffffffffff160361075d576040517f08c379a00000000000000000000000000000000000000000000000000000000081526004016107549061124e565b60405180910390fd5b60008160020160009054906101000a900473ffffffffffffffffffffffffffffffffffffffff169050338260020160006101000a81548173ffffffffffffffffffffffffffffffffffffffff021916908373ffffffffffffffffffffffffffffffffffffffff16021790555060008260050160006101000a81548160ff0219169083151502179055508073ffffffffffffffffffffffffffffffffffffffff166108fc83600401549081150290604051600060405180830381858888f19350505050158015610830573d6000803e3d6000fd5b507fd73457218f6ab2c74e548247b8ccd99af11d7975e2beef89a0cd9743fb558da4833384600401546040516108689392919061126e565b60405180910390a1505050565b6000819050919050565b61088881610875565b82525050565b60006020820190506108a3600083018461087f565b92915050565b6000604051905090565b600080fd5b600080fd5b600080fd5b600080fd5b6000601f19601f8301169050919050565b7f4e487b7100000000000000000000000000000000000000000000000000000000600052604160045260246000fd5b610910826108c7565b810181811067ffffffffffffffff8211171561092f5761092e6108d8565b5b80604052505050565b60006109426108a9565b905061094e8282610907565b919050565b600067ffffffffffffffff82111561096e5761096d6108d8565b5b610977826108c7565b9050602081019050919050565b82818337600083830152505050565b60006109a66109a184610953565b610938565b9050828152602081018484840111156109c2576109c16108c2565b5b6109cd848285610984565b509392505050565b600082601f8301126109ea576109e96108bd565b5b81356109fa848260208601610993565b91505092915050565b610a0c81610875565b8114610a1757600080fd5b50565b600081359050610a2981610a03565b92915050565b60008060408385031215610a4657610a456108b3565b5b600083013567ffffffffffffffff811115610a6457610a636108b8565b5b610a70858286016109d5565b9250506020610a8185828601610a1a565b9150509250929050565b600073ffffffffffffffffffffffffffffffffffffffff82169050919050565b6000610ab682610a8b565b9050919050565b610ac681610aab565b8114610ad157600080fd5b50565b600081359050610ae381610abd565b92915050565b60008060408385031215610b0057610aff6108b3565b5b6000610b0e85828601610a1a565b9250506020610b1f85828601610ad4565b9150509250929050565b600060208284031215610b3f57610b3e6108b3565b5b6000610b4d84828501610a1a565b91505092915050565b610b5f81610aab565b82525050565b600081519050919050565b600082825260208201905092915050565b60005b83811015610b9f578082015181840152602081019050610b84565b60008484015250505050565b6000610bb682610b65565b610bc08185610b70565b9350610bd0818560208601610b81565b610bd9816108c7565b840191505092915050565b60008115159050919050565b610bf981610be4565b82525050565b600060c082019050610c14600083018961087f565b610c216020830188610b56565b610c2e6040830187610b56565b8181036060830152610c408186610bab565b9050610c4f608083018561087f565b610c5c60a0830184610bf0565b979650505050505050565b610c7081610be4565b8114610c7b57600080fd5b50565b600081359050610c8d81610c67565b92915050565b600080600060608486031215610cac57610cab6108b3565b5b6000610cba86828701610a1a565b9350506020610ccb86828701610c7e565b9250506040610cdc86828701610a1a565b9150509250925092565b7f4e487b7100000000000000000000000000000000000000000000000000000000600052601160045260246000fd5b6000610d2082610875565b91507fffffffffffffffffffffffffffffffffffffffffffffffffffffffffffffffff8203610d5257610d51610ce6565b5b600182019050919050565b7f4e487b7100000000000000000000000000000000000000000000000000000000600052602260045260246000fd5b60006002820490506001821680610da457607f821691505b602082108103610db757610db6610d5d565b5b50919050565b60008190508160005260206000209050919050565b60006020601f8301049050919050565b600082821b905092915050565b600060088302610e1f7fffffffffffffffffffffffffffffffffffffffffffffffffffffffffffffffff82610de2565b610e298683610de2565b95508019841693508086168417925050509392505050565b6000819050919050565b6000610e66610e61610e5c84610875565b610e41565b610875565b9050919050565b6000819050919050565b610e8083610e4b565b610e94610e8c82610e6d565b848454610def565b825550505050565b600090565b610ea9610e9c565b610eb4818484610e77565b505050565b5b81811015610ed857610ecd600082610ea1565b600181019050610eba565b5050565b601f821115610f1d57610eee81610dbd565b610ef784610dd2565b81016020851015610f06578190505b610f1a610f1285610dd2565b830182610eb9565b50505b505050565b600082821c905092915050565b6000610f4060001984600802610f22565b1980831691505092915050565b6000610f598383610f2f565b9150826002028217905092915050565b610f7282610b65565b67ffffffffffffffff811115610f8b57610f8a6108d8565b5b610f958254610d8c565b610fa0828285610edc565b600060209050601f831160018114610fd35760008415610fc1578287015190505b610fcb8582610f4d565b865550611033565b601f198416610fe186610dbd565b60005b8281101561100957848901518255600182019150602085019450602081019050610fe4565b868310156110265784890151611022601f891682610f2f565b8355505b6001600288020188555050505b505050505050565b6000608082019050611050600083018761087f565b61105d6020830186610b56565b818103604083015261106f8185610bab565b905061107e606083018461087f565b95945050505050565b7f4e6f7420746865206f776e657200000000000000000000000000000000000000600082015250565b60006110bd600d83610b70565b91506110c882611087565b602082019050919050565b600060208201905081810360008301526110ec816110b0565b9050919050565b6000606082019050611108600083018661087f565b6111156020830185610b56565b6111226040830184610b56565b949350505050565b7f4974656d206e6f7420666f722073616c65000000000000000000000000000000600082015250565b6000611160601183610b70565b915061116b8261112a565b602082019050919050565b6000602082019050818103600083015261118f81611153565b9050919050565b7f496e73756666696369656e74207061796d656e74000000000000000000000000600082015250565b60006111cc601483610b70565b91506111d782611196565b602082019050919050565b600060208201905081810360008301526111fb816111bf565b9050919050565b7f43616e6e6f742062757920796f7572206f776e206974656d0000000000000000600082015250565b6000611238601883610b70565b915061124382611202565b602082019050919050565b600060208201905081810360008301526112678161122b565b9050919050565b6000606082019050611283600083018661087f565b6112906020830185610b56565b61129d604083018461087f565b94935050505056fea26469706673582212206112d2b10145d201538f41ec774bc1f7cb6a359411160f1f05317b868706989d64736f6c63430008180033",
  "linkReferences": {},
  "deployedLinkReferences": {}
}